:1000000002308A00232A0000FF00030E8301A100B2
:100010000A08A0008A010408A2007708A300780853
:10002000A4007908A5007A08A600831383128B1E0A
:100030001B280B192C28220884002308F700240809
:10004000F8002508F9002608FA0020088A00210E89
:100050008300FF0E7F0E09008A110A122F28FF303D
:100060008100330B36280230B3003F283308023CAE
:10007000031D3D280130B3003F280130B3000B11B0
:100080008A110A121B288316091283129001831603
:100090001F1383121F139F1783169F1783121F149A
:1000A00083161F109F141F159F150030F800063887
:1000B00083129200FF308316920083129101071180
:1000C0000C30970087109D0083160108C739383817
:1000D0008100FF3083128100153083168500831262
:1000E00085010030831686008312860183168700FF
:1000F0008312870183168800831288018B16C03013
:100100008B048A110A12472A3630840083130008B0
:10011000031998280130F800F701F70B8D28F80B28
:100120008C284A30F700F70B93289628800B8A28F2
:1001300008000030F8001F08C73978049F00063017
:10014000F700F70BA12800001F151F19A52883161B
:100150001E088312B1001E08B200B208031DB728A2
:100160003108633C031CB728270886008329B2089E
:10017000031DBE283108633C0318C828B208031DBC
:10018000C8283108C73C031CC828280886008329D2
:10019000B208031DCF283108C73C0318DC283208F9
:1001A000013C031CDC28031DD92831082B3C031C0F
:1001B000DC282908860083293208003C0318F4282B
:1001C000FF3A031DE72831082B3C0318F4283208B6
:1001D000013C031CF428031DF12831088F3C031C4B
:1001E000F4282A08860083293208003C03180C29C9
:1001F000FF3A031DFF2831088F3C03180C293208F1
:10020000013C031C0C29031D09293108F33C031C84
:100210000C292B08860083293208003C0318242966
:10022000FF3A031D17293108F33C0318242932082B
:10023000023C031C2429031D21293108573C031CBF
:1002400024292C08860083293208013C03183C2904
:10025000FF3A031D2F293108573C03183C29320867
:10026000023C031C3C29031D39293108BB3C031CFB
:100270003C292D08860083293208013C03185429A3
:10028000FF3A031D47293108BB3C031854293208A3
:10029000033C031C5429031D512931081F3C031C36
:1002A00054292E08860083293208023C03186C2941
:1002B000FF3A031D5F2931081F3C03186C293208DF
:1002C000033C031C6C29031D69293108833C031C72
:1002D0006C292F08860083293208023C03188329E1
:1002E000FF3A031D77293108833C0318832932081C
:1002F000033C031C8329031D81293108FE3C031C98
:100300008329300886008A110A12522A3508BB0058
:100310003408BA00BD013908BC001030BE00F70136
:10032000FA01BB0CBA0C031C9B293C08F707031805
:10033000FA0A3D08FA07FA0CF70CF90CF80CBE0B98
:1003400091297908BB007808BA003B08BD003A083B
:10035000BC00BF013708BE00F801F901F701FA013E
:100360003F08031DB6293E080319D0291030C000EC
:100370000310BC0DBD0DF70DFA0D3F087A02031DE9
:10038000C3293E087702031CCC293E08F702031C50
:10039000FA033F08FA020314F80DF90DC00BB8294F
:1003A000780808003308013A0319DA29033A0319D7
:1003B000FB29202A3208B5003108B400B601FF300D
:1003C000B700B801B900862178089B0095010F306D
:1003D000B400B5013508043C031CF7293408880033
:1003E0000310B40D5030B6008420B50AEA29053058
:1003F000B6008420202A9B013208B5003108B400E1
:10040000B601FF30B700B801B90086217808950021
:100410000F30B400340888005030B6008420B50195
:100420003508043C031C1D2A340888000310B40C52
:100430005030B6008420B50A102A0530B60084205A
:100440008A110A12532A03081F398300B201B1012D
:10045000B30183161F149F141F159F1107309C00B2
:100460008313BF308312A7000630A8005B30A900B9
:100470004F30AA006630AB006D30AC00FD30AD00EF
:100480000730AE00FF30AF006F30B0004328051DCD
:10049000512A1430B600842095019B01B30105193F
:0A04A0004F2A9928D229472A630049
:02400E00313F40
:00000001FF
;PIC16F877A
;CRC=13BF  CREATED="24-Oca-22 11:26"
